S00C00004C4142322E7372656317
S11300000C948E000C94AB000C94AB000C94AB00DD
S11300100C94AB000C94AB000C94AB000C94AB00B0
S11300200C94AB000C94AB000C94AB000C94AB00A0
S11300300C94AB000C94AB000C94AB000C94AB0090
S11300400C94AB000C94AB000C94AB000C94AB0080
S11300500C94AB000C94C6040C94AB000C94AB0051
S11300600C94AB000C94AB00320237023C02410208
S113007046024B02500255025A025F026B027002A2
S113008075027A027F02840289028E029302980228
S1130090A402A902AE02B302B802BD02C202C702A0
S11300A0CC02D1021C03210326032B0330033503A6
S11300B03A033F034403490355035A035F036403AC
S11300C069036E03730378037D0382038E03930332
S11300D098039D03A203A703AC03B103B603BB03B8
S11300E017041C04210426042B04300435043A04A8
S11300F03F044404500455045A045F04640469042E
S11301006E04730478047D0489048E0493049804B3
S11301109D04A204A704AC04B104B60411241FBEB8
S1130120CFEFD8E0DEBFCDBF11E0A0E0B1E0EAE55B
S1130130FAE002C005900D92AC31B107D9F721E085
S1130140ACE1B1E001C01D92AF32B207E1F70E9409
S1130150B4010C942B050C940000ECE7F0E0108241
S1130160AEE7B0E08C9181608C938C9182608C932B
S113017080818062808380818064808380818F77A6
S11301808083EAE7F0E080818860808380818760F3
S11301908083808180688083089580FF04C095B146
S11301A0986095B903C095B1977F95B981FF04C054
S11301B095B1946095B903C095B19B7F95B982FFC1
S11301C004C09BB194609BB903C09BB19B7F9BB956
S11301D083FF04C09BB198609BB903C09BB1977F18
S11301E09BB984FF04C09BB190619BB903C09BB1D0
S11301F09F7E9BB985FF04C09BB190629BB903C0ED
S11302009BB19F7D9BB986FF04C09BB190649BB951
S113021003C09BB19F7B9BB9882324F48BB1806876
S11302208BB908958BB18F778BB9089595B19E7F63
S113023095B90E94CD0085B1826085B98FE99FE0B0
S11302400197F1F700C0000085B18D7F85B98FE972
S11302509FE00197F1F700C00000089585B18E7FFB
S113026085B985B18D7F85B92FEF89EF90E0215055
S113027080409040E1F700C0000080E30E94160136
S11302808FE19EE40197F1F700C0000080E30E9433
S113029016018FE19EE40197F1F700C0000080E3AE
S11302A00E9416018FE39CE90197F1F700C000005A
S11302B088E30E9416018CE00E94160181E00E94EE
S11302C0160186E00E941601089581E00E9416013D
S11302D00895811105C080E8860F0E9416010895D3
S11302E0813021F480EC860F0E941601089595B1A7
S11302F0916095B90E94CD0085B1826085B98FE97E
S11303009FE00197F1F700C0000085B18D7F85B9AA
S11303108FE99FE00197F1F700C0000008950F9363
S11303201F93CF93DF938C01C0E0D0E003C00E9401
S113033077012196F801EC0FFD1F80818111F7CF21
S1130340DF91CF911F910F910895F8948FEF8AB99F
S113035084B917B81092C1000E942E010E94650151
S11303600E94AD00789408950E94A501EAE7F0E0A8
S113037080818064808362E080E00E9469018FE074
S113038091E00E948F0167E080E00E94690183E1AF
S113039091E00E948F016CE080E00E94690187E196
S11303A091E00E948F0162E081E00E94690187E28E
S11303B091E00E948F0167E081E00E9469018BE275
S11303C091E00E948F016CE081E00E94690180E06D
S11303D091E00E948F010091250110E028EE33E0A6
S11303E0C801B9010E94FD047B0148E15CEF649FF0
S11303F0C001659F900D749F900D1124800F911F73
S113040064E670E00E94FD04FB01E29EE001E39ECD
S1130410D00DF29ED00D112424E6269FC001279F03
S1130420900D1124C80FD91FC8018C1B9D0B6AE0C5
S113043070E00E94FD04CB01880F991F9B01220FDD
S1130440331F220F331F220F331F820F931F8C0F72
S11304509D1F081B190BEA30F105A8F5EC5CFF4F52
S11304600C94110580910401809327012CC0809184
S113047005018093270127C08091060180932701FD
S113048022C080910701809327011DC0809108013B
S11304908093270118C0809109018093270113C01C
S11304A080910A01809327010EC080910B018093F3
S11304B0270109C080910C018093270104C0809119
S11304C00D01809327016A307105B0F5FB01E25CF0
S11304D0FF4F0C94110580910401809328012CC0D6
S11304E0809105018093280127C0809106018093A3
S11304F0280122C080910701809328011DC08091AA
S113050008018093280118C0809109018093280173
S113051013C080910A01809328010EC080910B01C1
S11305208093280109C080910C018093280104C0A4
S113053080910D01809328010A301105B0F5F8016E
S1130540E85BFF4F0C94110580910401809329010D
S11305502CC0809105018093290127C08091060158
S11305608093290122C080910701809329011DC035
S1130570809108018093290118C08091090180931A
S1130580290113C080910A01809329010EC0809132
S11305900B018093290109C080910C0180932901EA
S11305A004C080910D01809329012091260130E03F
S11305B008EE13E0C901B8010E94FD047B0148E183
S11305C05CEF649FC001659F900D749F900D112492
S11305D0820F931F64E670E00E94FD04FB01E09E1D
S11305E0E001E19ED00DF09ED00D112444E6469F1B
S11305F0C001479F900D1124C80FD91FC9018C1B3E
S11306009D0B6AE070E00E94FD04CB01880F991FE6
S1130610AB01440F551F440F551F440F551F840F42
S1130620951F8C0F9D1F281B390BEA30F105A8F587
S1130630EE5AFF4F0C9411058091040180932B0115
S11306402CC08091050180932B0127C08091060165
S113065080932B0122C08091070180932B011DC040
S11306608091080180932B0118C080910901809327
S11306702B0113C080910A0180932B010EC080913D
S11306800B0180932B0109C080910C0180932B01F5
S113069004C080910D0180932B016A307105B0F57F
S11306A0FB01E45AFF4F0C941105809104018093DF
S11306B02C012CC08091050180932C0127C08091CE
S11306C0060180932C0122C08091070180932C01A4
S11306D01DC08091080180932C0118C080910901EC
S11306E080932C0113C080910A0180932C010EC0C9
S11306F080910B0180932C0109C080910C0180939F
S11307002C0104C080910D0180932C012A30310505
S1130710B0F5F901EA59FF4F0C94110580910401D9
S113072080932D012CC08091050180932D0127C059
S11307308091060180932D0122C08091070180934E
S11307402D011DC08091080180932D0118C0809156
S1130750090180932D0113C080910A0180932D011A
S11307600EC080910B0180932D0109C080910C0172
S113077080932D0104C080910D0180932D0120915F
S11307800E0130E0C8EED3E0C901BE010E94FD04B1
S11307908B01709323016093220148E15CEF649F15
S11307A0C001659F900D749F900D1124820F931FBB
S11307B064E670E00E94FD04FB01709321016093E4
S11307C020010C9FA0010D9F500D1C9F500D112462
S11307D064E66E9FC0016F9F900D1124EA01C80F5B
S11307E0D91FC9018C1B9D0B6AE070E00E94FD04B7
S11307F070931F0160931E01CB01880F991FAB01F9
S1130800440F551F440F551F440F551F840F951F48
S11308108C0F9D1F281B390B30931D0120931C0145
S1130820EA30F105A8F5E059FF4F0C9411058091C9
S11308300401809300012CC0809105018093000184
S113084027C0809106018093000122C08091070196
S1130850809300011DC0809108018093000118C09D
S1130860809109018093000113C080910A01809353
S113087000010EC080910B018093000109C080919A
S11308800C018093000104C080910D01809300014C
S11308906A307105B0F5FB01E658FF4F0C94110561
S11308A080910401809301012CC080910501809303
S11308B0010127C0809106018093010122C080912B
S11308C00701809301011DC08091080180930101FB
S11308D018C0809109018093010113C080910A011D
S11308E0809301010EC080910B018093010109C026
S11308F080910C018093010104C080910D018093CB
S113090001012A303105B0F5F901EC57FF4F0C9481
S1130910110580910401809302012CC0809105018E
S11309208093020127C0809106018093020122C0B6
S113093080910701809302011DC08091080180937A
S1130940020118C0809109018093020113C08091B3
S11309500A01809302010EC080910B018093020171
S113096009C080910C018093020104C080910D01A3
S1130970809302012FEF81EE94E02150804090405B
S1130980E1F700C000000E946501F0CC1F920F92B5
S11309900FB60F9211248F93EF93FF93809124014C
S11309A0882319F0813071F01BC0ECE7F0E08081FE
S11309B0887F8083809179008093260181E08093F1
S11309C024010EC0ECE7F0E08081887F8083808181
S11309D081608083809179008093250110922401A5
S11309E0EAE7F0E0808180618083FF91EF918F914D
S11309F00F900FBE0F901F90189597FB072E16F4BB
S1130A00009407D077FD09D00E94170507FC05D094
S1130A103EF4909581959F4F0895709561957F4F11
S1130A200895EE0FFF1F0590F491E02D0994AA1B81
S1130A30BB1B51E107C0AA1FBB1FA617B70710F0C5
S1130A40A61BB70B881F991F5A95A9F780959095F7
S10D0A50BC01CD010895F894FFCF16
S1130A5A3030300030313233343536373839FF5399
S10F0A6A313A0053323A0053333A000092
S9030000FC
