S00C00004C4142322E7372656317
S11300000C9434000C9449000C9449000C9449005D
S11300100C9449000C9449000C9449000C94490038
S11300200C9449000C9449000C9449000C94490028
S11300300C9449000C9449000C9449000C94490018
S11300400C9449000C9449000C9449000C94490008
S11300500C9449000C9449000C9449000C944900F8
S11300600C9449000C94490011241FBECFEFD8E032
S1130070DEBFCDBF11E0A0E0B1E0E0EEF2E002C0EF
S113008005900D92AA30B107D9F70E9438010C945B
S11300906E010C94000080FF04C09BB191609BB979
S11300A003C09BB19E7F9BB981FF04C09BB192604A
S11300B09BB903C09BB19D7F9BB982FF04C09BB1D8
S11300C094609BB903C09BB19B7F9BB983FF04C021
S11300D09BB198609BB903C09BB1977F9BB984FF88
S11300E004C09BB190619BB903C09BB19F7E9BB937
S11300F085FF04C09BB190629BB903C09BB19F7DF7
S11301009BB986FF04C09BB190649BB903C09BB1AB
S11301109F7B9BB9882324F48BB180688BB90895A5
S11301208BB18F778BB9089595B19E7F95B90E9455
S11301304B0085B1826085B98FE99FE00197F1F7A3
S113014000C0000085B18D7F85B98FE99FE00197DC
S1130150F1F700C00000089585B18E7F85B985B19F
S11301608D7F85B92FEF89EF90E02150804090403A
S1130170E1F700C0000080E30E9494008FE19EE458
S11301800197F1F700C0000080E30E9494008FE122
S11301909EE40197F1F700C0000080E30E94940000
S11301A08FE39CE90197F1F700C0000088E30E9407
S11301B094008CE00E94940081E00E94940086E008
S11301C00E949400089581E00E9494000895813073
S11301D029F480E8860F0E9494000895823021F467
S11301E080EC860F0E949400089595B1916095B9B2
S11301F00E944B0085B1826085B98FE99FE0019729
S1130200F1F700C0000085B18D7F85B98FE99FE0CB
S11302100197F1F700C0000008950F931F93CF9347
S1130220DF938C01C0E0D0E003C00E94F50021966A
S1130230F801EC0FFD1F80818111F7CFDF91CF9181
S11302401F910F9108958CE10E949400089588E114
S11302500E94940008958FEF8AB983E084B91092C4
S1130260C1000E94AC0060E080E00E94E7000895B5
S11302700E942B0180E091E00E940D012FEF83ED9D
S113028090E3215080409040E1F700C00000C0E0BE
S1130290D0E00CC00E9427012FEF89E698E121509D
S11302A080409040E1F700C000002196CF30D10596
S11302B08CF3C0E0D0E00CC00E9423012FEF89E64C
S11302C098E1215080409040E1F700C00000219661
S11302D0CF30D1058CF30E94E300CCCFF894FFCF4C
S10D02E0486F6C612055564700007A
S9030000FC
