:100000000C94AC000C94C9000C94C9000C94C90069
:100010000C94C9000C94C9000C94C9000C94C9003C
:100020000C94C9000C94C9000C94C9000C94C9002C
:100030000C94C9000C94C9000C94C9000C94C9001C
:100040000C94C9000C94C9000C9401070C94C900CD
:100050000C94C9000C94CA060C94C9000C94C900F5
:100060000C94C9000C94C9007E02830288028D02A0
:10007000920297029C02A102A602AB02B702BC0246
:10008000C102C602CB02D002D502DA02DF02E402CC
:10009000F002F502FA02FF02040309030E03130340
:1000A00018031D0379037E03830388038D039203E2
:1000B00097039C03A103A603B203B703BC03C103C8
:1000C000C603CB03D003D503DA03DF03EB03F0034E
:1000D000F503FA03FF03040409040E0413041804CF
:1000E000D304D804DD04E204E704EC04F104F604CC
:1000F000FB0400050C05110516051B05200525054B
:100100002A052F053405390545054A054F055405CF
:1001100059055E05630568056D057205FD05020656
:1001200007060C06110616061B06200625062A06DB
:1001300036063B06400645064A064F065406590653
:100140005E0663066F06740679067E0683068806D9
:100150008D06920697069C0611241FBECFEFD8E0AD
:10016000DEBFCDBF12E0A0E0B1E0E0EFFEE002C0F4
:1001700005900D92A432B107D9F722E0A4E2B2E0D3
:1001800001C01D92AC33B207E1F70E94D4010C9478
:1001900076070C940000ECE7F0E01082AEE7B0E0E8
:1001A0008C9181608C938C9182608C938081806231
:1001B000808380818064808380818F778083EAE779
:1001C000F0E0808188608083808187608083808187
:1001D00080688083089580FF04C095B1986095B9C8
:1001E00003C095B1977F95B981FF04C095B1946024
:1001F00095B903C095B19B7F95B982FF04C09BB1AF
:1002000094609BB903C09BB19B7F9BB983FF04C0E3
:100210009BB198609BB903C09BB1977F9BB984FF4A
:1002200004C09BB190619BB903C09BB19F7E9BB9F9
:1002300085FF04C09BB190629BB903C09BB19F7DB9
:100240009BB986FF04C09BB190649BB903C09BB16E
:100250009F7B9BB9882324F48BB180688BB9089568
:100260008BB18F778BB9089595B19E7F95B90E9418
:10027000EB0085B1826085B98FE99FE00197F1F7C6
:1002800000C0000085B18D7F85B98FE99FE001979F
:10029000F1F700C00000089585B18E7F85B985B162
:1002A0008D7F85B92FEF89EF90E0215080409040FD
:1002B000E1F700C0000080E30E9434018FE19EE47A
:1002C0000197F1F700C0000080E30E9434018FE144
:1002D0009EE40197F1F700C0000080E30E94340122
:1002E0008FE39CE90197F1F700C0000088E30E94CA
:1002F00034018CE00E94340181E00E94340186E0E8
:100300000E943401089581E00E9434010895811112
:1003100005C080E8860F0E9434010895813021F4E1
:1003200080EC860F0E943401089595B1916095B9D3
:100330000E94EB0085B1826085B98FE99FE001974B
:10034000F1F700C0000085B18D7F85B98FE99FE08E
:100350000197F1F700C0000008950F931F93CF930A
:10036000DF938C01C0E0D0E003C00E94950121968C
:10037000F801EC0FFD1F80818111F7CFDF91CF9144
:100380001F910F910895F8948FEF8AB984B917B827
:100390001092C1000E944C010E9483010E94CB0078
:1003A0000E941507789408950E94C301809130023D
:1003B000811128C080912F02811124C08EE091E02C
:1003C0000E9430078AE00E9441078DE00E944107A9
:1003D0008AE00E94410782E491E00E9430078AE0AF
:1003E0000E9441078DE00E9441078FE691E00E9444
:1003F00030078AE00E9441078DE00E94410781E0BA
:1004000080933002EAE7F0E080818064808362E0DC
:1004100080E00E9487018FE991E00E94AD0167E0D2
:1004200080E00E94870183EA91E00E94AD016CE0C8
:1004300080E00E94870187EA91E00E94AD0162E0BE
:1004400081E00E94870184E392E00E94AD0167E0B1
:1004500081E00E94870188E392E00E94AD016CE098
:1004600081E00E94870180E091E00E94AD0100914F
:10047000320210E028EE33E0C801B9010E944807BB
:100480007B0148E15CEF649FC001659F900D749F04
:10049000900D1124800F911F64E670E00E944807C0
:1004A000FB01E29EE001E39ED00DF29ED00D1124EF
:1004B00024E6269FC001279F900D1124C80FD91F45
:1004C000C8018C1B9D0B6AE070E00E944807CB01BD
:1004D000880F991F9B01220F331F220F331F220FFA
:1004E000331F820F931F8C0F9D1F081B190BEA30BF
:1004F000F105A8F5EC5CFF4F0C945C0780910401BA
:10050000809334022CC0809105018093340227C06F
:10051000809106018093340222C08091070180936C
:1005200034021DC0809108018093340218C080916C
:1005300009018093340213C080910A018093340230
:100540000EC080910B018093340209C080910C0190
:100550008093340204C080910D01809334026A308C
:100560007105B0F5FB01E25CFF4F0C945C078091D4
:100570000401809335022CC08091050180933502DF
:1005800027C0809106018093350222C08091070127
:10059000809335021DC0809108018093350218C0F8
:1005A000809109018093350213C080910A018093E4
:1005B00035020EC080910B018093350209C08091F5
:1005C0000C018093350204C080910D0180933502A7
:1005D0000A301105B0F5F801E85BFF4F0C945C0799
:1005E00080910401809336022CC080910501809394
:1005F000360227C0809106018093360222C0809186
:100600000701809336021DC0809108018093360255
:1006100018C0809109018093360213C080910A01AD
:10062000809336020EC080910B018093360209C080
:1006300080910C018093360204C080910D0180935B
:1006400036022091330230E0C8EED3E0C901BE018A
:100650000E9448078B0170932C0260932B0248E1A3
:100660005CEF649FC001659F900D749F900D1124F5
:10067000820F931F64E670E00E944807FB017093AD
:100680002A02609329020C9FA0010D9F500D1C9F10
:10069000500D112464E66E9FC0016F9F900D1124D0
:1006A000EA01C80FD91FC9018C1B9D0B6AE070E0DD
:1006B0000E9448077093280260932702CB01880F9D
:1006C000991FAB01440F551F440F551F440F551F71
:1006D000840F951F8C0F9D1F281B390B309326020A
:1006E00020932502EA30F105A8F5EE5AFF4F0C944D
:1006F0005C0780910401809338022CC08091050131
:100700008093380227C0809106018093380222C06E
:1007100080910701809338021DC080910801809369
:10072000380218C0809109018093380213C080916B
:100730000A01809338020EC080910B018093380229
:1007400009C080910C018093380204C080910D0192
:10075000809338026A307105B0F5FB01E45AFF4F0F
:100760000C945C0780910401809339022CC0809125
:1007700005018093390227C08091060180933902D8
:1007800022C080910701809339021DC08091080129
:100790008093390218C0809109018093390213C0F7
:1007A00080910A01809339020EC080910B018093E1
:1007B000390209C080910C018093390204C08091F4
:1007C0000D01809339022A303105B0F5F901EA595B
:1007D000FF4F0C945C078091040180933A022CC077
:1007E0008091050180933A0227C080910601809391
:1007F0003A0222C08091070180933A021DC0809185
:10080000080180933A0218C08091090180933A024E
:1008100013C080910A0180933A020EC080910B01AF
:1008200080933A0209C080910C0180933A0204C07F
:1008300080910D0180933A0280912402813351F519
:1008400080912F02811126C08BEA91E00E9430072F
:1008500084E392E00E9430078AE00E9441078DE025
:100860000E9441078DEB91E00E94300788E392E0FF
:100870000E9430078AE00E9441078DE00E944107F4
:100880008AE00E9441078DE00E94410710922402F5
:1008900010923002809124028233A9F481E0809387
:1008A0002F028FEC91E00E9430078AE00E944107FE
:1008B0008DE00E9441078AE00E9441078DE00E947E
:1008C000410710922402809124028B3209F027C143
:1008D00080912F02813009F022C180912D029091E8
:1008E0002E028F3F910534F08FEF90E090932E020F
:1008F00080932D0220912D0230912E02C8EED3E07C
:10090000C901BE010E9448078B0170932C026093BD
:100910002B0248E15CEF649FC001659F900D749FBE
:10092000900D1124820F931F64E670E00E94480727
:10093000FB0170932A02609329020C9FA0010D9F76
:10094000500D1C9F500D112464E66E9FC0016F9FD7
:10095000900D1124EA01C80FD91FC9018C1B9D0BF2
:100960006AE070E00E9448077093280260932702B3
:10097000CB01880F991FAB01440F551F440F551F22
:10098000440F551F840F951F8C0F9D1F281B390B7B
:100990003093260220932502EA30F105A8F5E059AC
:1009A000FF4F0C945C0780910401809300012CC0E0
:1009B000809105018093000127C0809106018093FA
:1009C000000122C080910701809300011DC0809129
:1009D00008018093000118C08091090180930001F3
:1009E00013C080910A01809300010EC080910B0119
:1009F0008093000109C080910C018093000104C024
:100A000080910D01809300016A307105B0F5FB0102
:100A1000E658FF4F0C945C0780910401809301011C
:100A20002CC0809105018093010127C080910601AF
:100A30008093010122C080910701809301011DC0B4
:100A4000809108018093010118C080910901809371
:100A5000010113C080910A01809301010EC08091B1
:100A60000B018093010109C080910C018093010169
:100A700004C080910D01809301012A303105B0F549
:100A8000F901EC57FF4F0C945C07809104018093AF
:100A900002012CC0809105018093020127C0809142
:100AA00006018093020122C0809107018093020118
:100AB0001DC0809108018093020118C08091090136
:100AC0008093020113C080910A01809302010EC03D
:100AD00080910B018093020109C080910C018093E9
:100AE000020104C080910D018093020189E192E02E
:100AF0000E94300780E091E00E9430078AE00E9467
:100B000041078DE00E9441071092240280912D023E
:100B100090912E02019690932E0280932D02809147
:100B200024028D3209F025C180912F02813009F015
:100B300020C180912D0290912E021816190624F0E2
:100B400010922E0210922D0220912D0230912E0231
:100B5000C8EED3E0C901BE010E9448078B01709323
:100B60002C0260932B0248E15CEF649FC001659FFB
:100B7000900D749F900D1124820F931F64E670E016
:100B80000E944807FB0170932A02609329020C9F80
:100B9000A0010D9F500D1C9F500D112464E66E9F07
:100BA000C0016F9F900D1124EA01C80FD91FC90120
:100BB0008C1B9D0B6AE070E00E944807709328022E
:100BC00060932702CB01880F991FAB01440F551F7B
:100BD000440F551F440F551F840F951F8C0F9D1FE9
:100BE000281B390B3093260220932502EA30F105A9
:100BF000A8F5E257FF4F0C945C07809104018093A5
:100C000000012CC0809105018093000127C08091D4
:100C100006018093000122C08091070180930001AA
:100C20001DC0809108018093000118C080910901C6
:100C30008093000113C080910A01809300010EC0CF
:100C400080910B018093000109C080910C01809379
:100C5000000104C080910D01809300016A3071058C
:100C6000B0F5FB01E856FF4F0C945C07809104013E
:100C7000809301012CC0809105018093010127C060
:100C8000809106018093010122C080910701809329
:100C900001011DC0809108018093010118C080915D
:100CA00009018093010113C080910A018093010121
:100CB0000EC080910B018093010109C080910C014D
:100CC0008093010104C080910D01809301012A30BD
:100CD0003105B0F5F901EE55FF4F0C945C0780919A
:100CE0000401809302012CC08091050180930201D0
:100CF00027C0809106018093020122C080910701E4
:100D0000809302011DC0809108018093020118C0E8
:100D1000809109018093020113C080910A018093A0
:100D200002010EC080910B018093020109C08091E5
:100D30000C018093020104C080910D018093020197
:100D400089E192E00E94300780E091E00E94300744
:100D50008AE00E9441078DE00E9441071092240220
:100D600080912D0290912E02019790932E028093F4
:100D70002D0280912402853609F018CB80912F0234
:100D8000813009F013CB109224021092300210929D
:100D90002F020CCB1F920F920FB60F9211248F933C
:100DA000EF93FF9380913102882319F0813071F025
:100DB0001BC0ECE7F0E08081887F80838091790020
:100DC0008093330281E0809331020EC0ECE7F0E0C3
:100DD0008081887F80838081816080838091790099
:100DE0008093320210923102EAE7F0E08081806164
:100DF0008083FF91EF918F910F900FBE0F901F9006
:100E000018951F920F920FB60F9211248F93809115
:100E1000C600809324028091C00085FFFCCF8F9193
:100E20000F900FBE0F901F9018958AB18E7F8AB9D0
:100E30008AB182608AB91092C000E1ECF0E01082C1
:100E4000808188698083E2ECF0E010828081866096
:100E5000808387E690E09093C5008093C400089556
:100E6000AC0120E007C09091C00095FFFCCF30930B
:100E7000C6002F5FFA01E20FF11D30813111F3CF6F
:100E800008959091C00095FFFCCF8093C60008950F
:100E900097FB072E16F4009407D077FD09D00E9427
:100EA000620707FC05D03EF4909581959F4F089509
:100EB000709561957F4F0895EE0FFF1F0590F49197
:100EC000E02D0994AA1BBB1B51E107C0AA1FBB1F41
:100ED000A617B70710F0A61BB70B881F991F5A95C6
:100EE000A9F780959095BC01CD010895F894FFCFA6
:100EF00030303000303132333435363738390A0D3E
:100F000020202020202A2A2A2A2A2A2A2A2A2A2A73
:100F10002A2A2A486F6C6120636F6D6F2065737495
:100F2000612A2A2A2A2A2A2A2A2A2A2A2A2A2A2AEA
:100F30002A0020202020202020202020436F6C6FBA
:100F400071756520312070617261206C6565722059
:100F5000706F74656E63696F6D6574726F73002076
:100F6000202020202020202020436F6C6F71756589
:100F70002032207061726120696E6372656D656EEA
:100F800074617220636F6E7461646F720A0D005336
:100F9000313A0053323A0053333A00506F74656E61
:100FA0006369F36D6574726F20313A2000506F747D
:100FB000656E6369F36D6574726F20323A2000507C
:100FC000726573696F6E65202B2070617261206994
:100FD0006E6372656D656E7461722C202D20706178
:100FE00072612064656372656D656E7461722C2038
:100FF000652070617261206D656E75207072696E1A
:10100000636970616C200A0D00436F6E7461646FD8
:04101000723A200010
:00000001FF
